:020000040800F2
:1000000008B300205D020008174E0008793C000884
:10001000B14D00089D0C0008A15F00080000000021
:100020000000000000000000000000009D0100082A
:100030002513000800000000F90100081959000804
:1000400077020008770200087702000877020008AC
:10005000770200087702000877020008770200089C
:10006000770200087702000877020008770200088C
:10007000751200087702000877020008770200086E
:10008000770200087702000877020008770200086C
:10009000A10C0008AD0C00087702000877020008E8
:1000A000770200087702000877020008770200084C
:1000B000770200087702000877020008770200083C
:1000C0007702000877020008770200084956000806
:1000D000770200087D5F000877020008895F00084A
:1000E000770200087702000877020008770200080C
:1000F00077020008770200087702000877020008FC
:1001000077020008770200087702000877020008EB
:100110007702000877020008F5590008015A000824
:1001200077020008770200087702000877020008CB
:1001300077020008770200087702000877020008BB
:10014000B90C0008C50C0008770200087702000807
:10015000770200087702000877020008955F000820
:100160007D3C00087702000877020008770200084B
:1001700077020008770200087702000800000000FC
:100180007702000877020008DFF80CD000F05EFB71
:1001900000480047A17B000808B300202C4B1968D9
:1001A0000868B0E8F04F80F30988BFF36F8F4FF015
:1001B000000080F3118870470000000008480068C4
:1001C000006880F308884FF0000080F3148862B65E
:1001D00061B6BFF34F8FBFF36F8F00DF00BF00BF6B
:1001E00008ED00E0DFF80C00016841F470010160E7
:1001F000704700BF88ED00E0EFF30980BFF36F8F19
:10020000134B1A681EF0100F08BF20ED108A20E96A
:10021000F04F106009B44FF0500080F31188BFF325
:100220004F8FBFF36F8F08F0C1FD4FF0000080F3D8
:10023000118809BC19680868B0E8F04F1EF0100F6B
:1002400008BFB0EC108A80F30988BFF36F8F704746
:1002500044000020EFF30580704700000648804707
:1002600006480047FEE7FEE7FEE7FEE7FEE7FEE79B
:10027000FEE7FEE7FEE7FEE7D9590008890100081E
:100280002DE9F05F0546002092469B4688460646CB
:10029000814640241BE0284641464746224600F05E
:1002A000CBF953465A46C01A914110D3114618460D
:1002B000224600F0B2F92D1A67EB01084F4622469C
:1002C0000120002100F0A9F917EB00094E41201E82
:1002D000A4F10104DFDC484631462A464346BDE826
:1002E000F09F40EA01039B0703D009E008C9121FF1
:1002F00008C0042AFAD203E011F8013B00F8013BE0
:10030000521EF9D27047D2B201E000F8012B491E0B
:10031000FBD270470022F6E710B513460A460446A2
:100320001946FFF7F0FF204610BD2DE9FE4F80462D
:1003300081EA0300C00F0C46009021F0004123F039
:100340000045B8EB0200A94105D24046214690463F
:100350001C460B46024623F00040104347D0270DB1
:10036000C7F30A00C3F30A510290401A01904028D3
:100370006BDAC3F3130040F4801B0098924620B15F
:100380000023D2EB030A63EB0B0B01985946C0F133
:100390004002504600F041F906460D465046594687
:1003A000019A00F059F910EB08006141002487EA36
:1003B000115284EAE7731A4340D0009A62B3019A5B
:1003C000012A4FEA075215DC001B61EB02014FF0D6
:1003D000004202EA0752CDE90042001C41F58011BB
:1003E00032462B4600F090F903B0BDE8F08F40464E
:1003F0002146F9E7001B61EB0201001C41F5801367
:1004000000185B412018A2F5001747EB030140EAF2
:10041000D570B6196D4111E06D084FEA360645EA10
:10042000C0754FEA0752001B61EB0201001C41F549
:10043000801149084FEA30000019514132462B46DD
:1004400003B0BDE8F04F00F050B900980122400021
:100450000023D0EB020263EBE073009821464FEAE1
:10046000E074B8EB000061EB0401E9E783F00043BE
:100470005BE781F0004158E72DE9FE4F81EA030474
:1004800004F0004421F0004100944FF0000B23F0F1
:10049000004350EA01045ED052EA03045BD0C3F388
:1004A0000A54C1F30A552C44A4F2F3340194A0FB7E
:1004B0000254C1F3130141F48011C3F3130343F455
:1004C000801301FB024400FB034E840A970A44EAAE
:1004D000815447EA8357A4FB076802958D0A05FB00
:1004E00007854FEA932C04FB0C542705029D4FEA25
:1004F000065847EA1637B5EB08056EEB070C870E72
:10050000920E47EA811742EA8312A7FB0201B6EB7B
:100510000B0164EB00042B0D43EA0C335E1844EB33
:100520001C50DA465146E7FB0201C5F313044FEABB
:100530000B3343EA14534FEA0432019C43EA0603A7
:10054000A4F10C040294009CCDE900B400F0DCF8A6
:1005500003B0BDE8F08F00200146F9E70EB5C10FEA
:1005600080EAE0700844CA07002140F233438DE876
:100570000E000A460B4600F0C7F803B000BD70B588
:10058000C1F30A5201F000450024C1F3130140F207
:10059000FF3341F480119A4201DA002070BD40F22D
:1005A00033439A42A2F2334203DC524200F044F851
:1005B00000E090402C43F1D0404270BD00F000427A
:1005C00030F000400AD0C10D01F56071C0F3160093
:1005D00042EA0151C208400711437047002001461A
:1005E000704701F0004330B421F0004150EA0102AD
:1005F00006D00A0DA2F56072C1F31301002A02DCD5
:1006000030BC00207047440F44EAC104C100E01828
:1006100030BC00EBC25000F031B8202A04DB203A95
:1006200000FA02F1002070479140C2F1200320FA45
:1006300003F3194390407047202A04DB203A21FA43
:1006400002F00021704721FA02F3D040C2F12002EB
:100650009140084319467047202A06DBCB17203A01
:1006600041FA02F043EAE07306E041FA02F3D040B7
:10067000C2F1200291400843194670470029A8BFE3
:100680007047401C490008BF20F00100704710B4BB
:10069000B0FA80FC00FA0CF050EA010404BF10BC70
:1006A000704749B1CCF1200421FA04F411FA0CF19D
:1006B00018BF012121430843A3EB0C01CB1D4FEAD6
:1006C00000614FEA102042BF002010BC704700EBD1
:1006D000C35010440029A4BF10BC7047401C4900FF
:1006E00008BF20F0010010BC704710B5141E73F154
:1006F000000408DA401C41F1000192185B411A43E2
:1007000001D120F0010010BD2DE9F04D92469B462D
:1007100011B1B1FA81F202E0B0FA80F220329046D3
:10072000FFF77BFF04460F4640EA0A0041EA0B014F
:1007300053465A46084313D0114653EA010019D0D4
:10074000C8F140025046FFF777FF05460E46504677
:1007500059464246FFF761FF084305D0012004E0F7
:1007600020463946BDE8F08D0020054346EAE07694
:100770002C4337430A986305E40AA0EB08000022E3
:10078000FD0A44EA47540A3002D500200146E9E751
:10079000010510196941DDE9084500196941BDE805
:1007A000F04DA2E72DE9F04D00231A461B1A8A41AD
:1007B00003DB00200146BDE8F08DC1F30A52C1F30E
:1007C000130141F480154FF0000BD10702D100183E
:1007D0006D41521E0027044640F2FF11384601EBDE
:1007E000620A3E468046024600204FF48011FFF721
:1007F00023FFC2197141BB1846EB0100B4EB030C97
:1008000075EB000C04D3E41A65EB000517460E46A1
:10081000241908F101006D4180463428E3DDF919FF
:1008200046EB0600091BA84103D24FF0FF321346E6
:1008300001E0002213461BEB070046EB0A51BDE81E
:10084000F04DFFF752BF002070470000064C074DE7
:1008500006E0E06840F0010394E807009847103490
:10086000AC42F6D3FFF794FC489C0008689C000853
:100870002DE9F04D81EA030404F0004B21F000451E
:1008800014464FF0000A23F0004150EA050220D040
:1008900054EA01021DD0C5F30A570246C5F31303FB
:1008A000C1F31300C1F30A5640F4801543F48013DA
:1008B000A7EB0608101BD64608F2FD3873EB0500BF
:1008C00002D308F1010801E092185B41B8F1000F72
:1008D00003DA00200146BDE8F08D00204FF48011BE
:1008E000064684460EE0171B73EB050705D3121B63
:1008F00063EB050306434CEA010C49084FEA30005C
:1009000092185B4150EA0107EDD152EA030012D080
:1009100082EA040083EA0501084305D0101BAB41BD
:1009200006D20122002306E000224FF0004302E03D
:100930006FF0010253101AEB06004CEB085110EB5C
:100940000A0041EB0B01BDE8F04DFFF7CEBE0EB53E
:1009500040F2334102910021CDE900110A460B46D5
:10096000FFF7D2FE03B000BD70B58C1810F8015B24
:1009700015F0070301D110F8013B2A1106D110F838
:10098000012B03E010F8016B01F8016B5B1EF9D13C
:100990002B0705D40023521E0DD401F8013BFAE7C2
:1009A00010F8013BCB1A921C03E013F8015B01F82D
:1009B000015B521EF9D5A142D8D3002070BD70B59D
:1009C00001F118020C4605460123164600F078FD99
:1009D000002813D0022332462146284600F070FD3D
:1009E00000280BD0042332462146284600F068FD3B
:1009F000002803D0BDE8704000F095BC70BD000039
:100A000001221021014801F026BC00000000024034
:100A100000221021014801F01EBC0000000002402D
:100A200001221146014801F016BC000000040240FA
:100A300000220121014801F00EBC00000004024028
:100A400070B504464FF47A7502E0284600F004F8C9
:100A5000641EA4B2F9D270BD70B54FF6FA75281AAB
:100A600084B2084802F08EFC064801684C620068B7
:100A700001E0416A8CB2AC42FBD3BDE87040014852
:100A800002F0A3BCE003002010B506F02FFD0446E1
:100A900006F0B4FD204310BD7CB505460020164687
:100AA0000C4600900190FFF7B3FF922000F0BAF8D7
:100AB00006226946122000F097F8FFF7A1FF9DF883
:100AC00001009DF80010000200B2084300EE100A79
:100AD000F8EEC00A9FED420A60EE800AC4ED000AFB
:100AE0009DF803009DF80210000200B2084300EEDA
:100AF000900AF8EEE00A60EE800AC4ED010A9DF863
:100B000005009DF80410000200B2084300EE900AB0
:100B1000F8EEE00A20EE800A84ED020AFFF788FF73
:100B200008226946002000F05FF8FFF779FF9DF882
:100B300000000F282ED19DF803009DF8021000023E
:100B400000B2084300EE100AF8EEC00A9FED250A35
:100B500060EE800AC5ED000A9DF805009DF80410BE
:100B6000000200B2084300EE900AF8EEE00A60EEE0
:100B7000800AC5ED010A9DF807009DF806100002E5
:100B800000B2084300EE900AF8EEE00A20EE800A78
:100B900085ED020AFFF73CFFA22000F043F8022295
:100BA0006946222000F020F8FFF72AFF9DF8000098
:100BB0009DF80110C00040EA5110B0F5806F01DBD4
:100BC000A0F5006000EE100AB4EE001AF8EEC00ABC
:100BD000B3EE070A00EE810A86ED000A7CBD000034
:100BE000E7416B3A58A08B3A70B514460D4640F079
:100BF000800000F017F806E0552000F013F8641E9E
:100C000005F8010BE4B2002CF6D170BD10B50C460E
:100C100040F0800000F006F8552000F003F8207046
:100C200010BD000001B582B04FF47A70009001232E
:100C300001AA02A9024802F0E9F99DF804000EBDDC
:100C40008802002010B50C46FFF7ECFF2046BDE8F7
:100C50001040FFF7E7BF00000D4A30B411682829A3
:100C600011D2101D0B4B50F8210020B100EBD074B5
:100C700064101C6000E01860064B103B1860491CB3
:100C8000116030BC704730BC0821034802F08CBDB5
:100C9000300100203C08004020030020FEE7000057
:100CA000014800F06CBD0000E4010020014800F0A4
:100CB00066BD0000E4010020014800F060BD0000B6
:100CC0000C020020014800F05ABD00000C02002078
:100CD00010B5A0F201200C46092839D2DFE800F057
:100CE000050B11171D2329382F00022003F05CFD8E
:100CF0002146184828E0032003F056FD21461648F7
:100D000022E0042003F050FD214614481CE0052099
:100D100003F04AFD2146124816E0062003F044FD88
:100D20002146104810E0072003F03EFD21460E4802
:100D30000AE0082003F038FD21460C4804E00920B1
:100D400003F032FD0A482146BDE8104004F031B8F6
:100D500010BD0000384F0020AC4F00202050002074
:100D600094500020085100207C510020F0510020B8
:100D70006452002010B5A0F201200C46092839D297
:100D8000DFE800F0050B11171D2329382F00022082
:100D900003F00AFD2146184828E0032003F004FD73
:100DA0002146164822E0042003F0FEFC21461448A8
:100DB0001CE0052003F0F8FC2146124816E006204E
:100DC00003F0F2FC2146104810E0072003F0ECFC91
:100DD00021460E480AE0082003F0E6FC21460C48B4
:100DE00004E0092003F0E0FC0A482146BDE8104079
:100DF00003F0DFBF10BD0000D85200204C5300208C
:100E0000C053002034540020A85400201C5500205A
:100E100090550020045600202DE9F0438BB00025AA
:100E20000124CDE90554074644F2200000900795BF
:100E300044F240004FF48039CDE90109CDE9039532
:100E40000E26DFF88080CDE90846474500D105969B
:100E50006946384600F098FB08B100F064FA44F2A5
:100E60006000059400904FF48140019044F22010FE
:100E70000290CDE90645CDE90394CDE90846474502
:100E800001D10F2005906946384600F07DFB08B17E
:100E900000F049FA384600F0D5FE08B100F043FAF8
:100EA0000221384600F0FAFA08B100F03CFA1021AD
:100EB000384600F0F3FA08B100F035FA0BB0002024
:100EC000BDE8F0830C020020F0B40C4C0826049D11
:100ED0002661B60126600026A660E6600E0A267628
:100EE0006176110AA176E276190A21776377290AD9
:100EF000A177E5772146F0BCFFF761BDD84E002011
:100F0000F0B40D4C0826049D266140F2FF262660B1
:100F10000026A660E6600E0A26766176110AA176A2
:100F2000E276190A21776377290AA177E5772146C6
:100F3000F0BCFFF744BD0000184F00201B4810B55F
:100F4000B0F9041000EE101AB8EEC00A80ED180ACD
:100F50001748B0F9041000EE101AB8EEC00A80ED80
:100F6000180A1448B0F9041000EE101AB8EEC00ABE
:100F700080ED180A1048B0F9041000EE101AB8EE0F
:100F8000C00A80ED180A0948403003F067FF08489E
:100F9000403003F063FF0748403003F05FFF06482E
:100FA000BDE81040403003F059BF0000384F00202A
:100FB000AC4F002020500020945000202DE9F0413B
:100FC000A04C9F4D2DED068B82B094ED088A95EDD7
:100FD000009A85ED008A207868B12046A178C66B1A
:100FE000DFF86482DFED998A806B4FF08B4759B14F
:100FF00001292ED0D6E0002003460246014600908B
:1010000015E100BF38EE688A18EE101AB942F9DC13
:1010100085ED008A424601E038EE288A18EE101A63
:101020009142F9D885ED008AB0EEC80ADFED880A52
:10103000C4E90B0620EE200A60EE080A94ED100ABF
:10104000B8EEC00A20EE800ABDEEC00A84ED0D0A9B
:10105000A8E0FFF783FA9FED7FAB53EC1A2BFFF765
:101060000BFAFFF78CFAA0633046FFF777FA53ECE0
:101070001A2BFFF701FAFFF782FA38EE490AE0630C
:1010800010EE100AB84202DD38EE680A08E010EEF1
:10109000100A404502D895ED000A03E038EE280A10
:1010A00085ED000AB5EEC00AF1EE10FA03D230EE7B
:1010B000280A85ED000ADFED690A20EE200A85ED99
:1010C000000A10EE100AFFF779FA41EC100B05F058
:1010D000FBFCB0EE408A94ED0F0AF0EE608AB8EEA9
:1010E000C00A10EE100AFFF769FA53EC182BFFF74D
:1010F000C3F941EC180B2868FFF760FA41EC100BBC
:1011000005F04AF9B0EE409A94ED0E0AF0EE609ABE
:10111000B8EEC00A10EE100AFFF750FA53EC192B84
:10112000FFF7AAF953EC182BFFF7FFF8FFF727FAA0
:10113000E0622868FFF742FA41EC100B05F0C4FCAE
:10114000B0EE408A94ED0E0AF0EE608AF8EEC00A26
:1011500010EE900AFFF732FA53EC182BFFF78CF9D8
:1011600041EC180B2868FFF729FA41EC100B05F049
:1011700013F9B0EE409A94ED0F0AF0EE609AB8EED3
:10118000C00A10EE100AFFF719FA53EC192BFFF7FB
:1011900073F953EC182BFFF769F9FFF7F0F92063A7
:1011A000606C6063D4E90B21606B53181C1800EE6F
:1011B000104A2B4C8D1AB8EEC00A0544C31A84EDB0
:1011C000190A00EE105A274D274EB8EEC00A511AE0
:1011D000084485ED190A00EE103A244FB8EEC00A13
:1011E00086ED190A00EE100AB8EEC00A87ED190A5A
:1011F000FFF7A4FE97ED1A0ABDEEC00A10EE100A22
:1012000000B2009096ED1A0ABDEEC00A10EE100A68
:1012100095ED1A0A03B2BDEEC00A10EE100A94ED65
:101220001A0A02B2BDEEC00A10EE100A01B210484E
:10123000FFF74AFE02B0BDEC068BBDE8F08100006E
:10124000D4010020C0880020000080C500000046B6
:1012500017B7D1B8000000000000D03FBD3A473AB0
:10126000384F0020AC4F0020205000209450002028
:10127000E4010020014800F099BD0000E0040020D6
:1012800001681823CAB2103AB2FBF3F2054B6FF3B0
:101290000901032A9B5CC36500D9091D81650846C5
:1012A000704700005899000810B5014600208B696E
:1012B0008A6A4FF0C07453B1B3F5005F15D072B1B4
:1012C000012A0CD0022A0AD0032A09D104E01AB15B
:1012D000012A06D0022A03D1C96AC90100D501201A
:1012E00010BDC96AA142FAD010BD002AF7D0012A68
:1012F000F2D0022AF3D0032AF3D010BD30B504682F
:10130000256825F480252560046863608368402B88
:10131000036803D099600068C26030BD9A600068BD
:10132000C16030BD704772B6FEE7000070B5234C57
:10133000B4F9000000EE100A04F10C00B8EEC00A87
:1013400084ED0B0A03F08AFD94ED0D0A84ED190A71
:10135000B4F9040000EE100A04F14000B8EEC00A2F
:1013600084ED180A03F07AFD1548164D164CC07826
:10137000012801D018B10AE095ED0C0A03E0B4F998
:10138000000000EE100AB8EEC00A84ED0B0A0E4809
:101390000C3003F063FD94ED0D0ADFED0C0A84EDD3
:1013A000190A95ED050A084820EE200A403084ED20
:1013B000180ABDE8704003F051BD0000045600203B
:1013C000C0880020AC87002064520020E12E6542D6
:1013D000F8B52D4800240178F1B3D0ED020A90ED64
:1013E000040AF4EEC00AF1EE10FA01D280ED020A0E
:1013F000D0ED020A90ED050AF4EEC00AF1EE10FA03
:1014000001DD80ED020A214DD0ED070A204EB5F92D
:10141000001000EE101AB8EEC00A30EE600A80ED3F
:10142000080A90ED020A86ED0C0A90ED060A85ED99
:101430000C0AFFF77BFF009495ED1A0A00231A4669
:10144000BDEEC00A10EE100A01B21248FFF758FDB7
:10145000009496ED1A0A00E00AE0BDEEC00A0023EF
:101460001A4610EE100A01B20B48FFF749FDF8BD0D
:1014700000231A46194607480094FFF741FD002350
:101480001A4619460094EFE7C088002064520020F5
:1014900004560020E40100200C02002090F82020D7
:1014A000012A07D0022A05D0416A41F48021416215
:1014B00001207047006842690A434261002070477A
:1014C000F0B590F820500468A468012D05D0022DD5
:1014D00003D0416A41F4802153E014F0406F01D100
:1014E000E5004BD5C4F30164022C03D9416A41F4F1
:1014F000000146E00125A5401D608D684FF4C073D2
:101500009DB1CE6835434E6845EAC605066803EBD3
:101510000417F5514FF4C275076805EB04150E6901
:101520007E51097D012905D009E00E88CD6845EA84
:101530004655EBE701684E5946F480764E511179D5
:10154000D2F805504FF4C67641EA0525016806EB4E
:1015500004168D511178D2F801204FF4C47541EA78
:101560000221026805EB04155151006803EB0411D8
:10157000425842F0010242500020F0BD416A41F45D
:10158000001141620120F0BD10B590F82020012A21
:1015900007D0022A05D0416A41F48021416201202E
:1015A00010BD3B48D0F8002242F00102C0F80022F2
:1015B000D0F8002222F47C52C0F80022D0F8002299
:1015C0004B6A42EA0322C0F800220A7D02F01F03A0
:1015D00001229A40D0F81C329343C0F81C32CB69E8
:1015E000B3B9D0F80C329343C0F80C328C894B68F5
:1015F00064F31F434C6900EBC404C4F840320C8907
:101600000B6864F31F434C6900EBC404C4F8443214
:10161000CB69012B16D1D0F80C321343C0F80C3231
:101620000C884B6864F31F434C6900EBC404C4F896
:1016300040320C89CB6864F31F434C6900EBC4044F
:10164000C4F844328B69002BD0F804320ED0134317
:10165000C0F804320B69002BD0F8143208D01343C1
:10166000C0F81432096A012904D008E09343EFE777
:101670009343F5E7D0F81C121143C0F81C12D0F8C0
:10168000001221F00101C0F80012002010BD00007E
:1016900000640040704730B590F82040012C05D020
:1016A000022C03D0416A41F480215DE004680029E6
:1016B00055D02469A40754D04FF4D874056804EBBE
:1016C00001142D5915F00405956005682D594ED06B
:1016D000ED08556005682C5904F00204D4604FF4FD
:1016E000DA74056804EB01142D5905F00F05156136
:1016F00005682D59C5F30725956105682C59240CFB
:1017000054614FF4DC72046802EB0112A4581C709F
:101710000468A458240A5C700468A458240C9C70C3
:101720000468A258120EDA704FF4DE72046802EBFD
:101730000112A4581C710468A458240A5C7104683E
:10174000A458240C9C710468A258120EDA71006827
:1017500081B1016941F020010161002030BDE468E0
:10176000A8E7416A41F400114162012030BD6D0DCE
:101770001560AFE7C16841F02001C160EDE72DE9D8
:10178000F05F0546006800244669D0F80490876839
:10179000D0F80CB0D0F810A0D0F81880F10748D0DD
:1017A000F90714D001218160B80703D5284600F05D
:1017B00076FA0CE0780702D54FF4006407E03807AA
:1017C00002D54FF4805402E0284600F067FAF8058D
:1017D00016D529684FF480708860B80503D528466F
:1017E00000F05FFA0CE0780502D544F4005407E0FD
:1017F000380502D544F4804402E0284600F050FA4F
:10180000F80316D529684FF480308860B80303D5F3
:10181000284600F048FA0CE0780302D544F400446E
:1018200007E0380302D544F4803402E0284600F093
:1018300039FA300707D55FEACB6004D52968102054
:1018400044F40074C86070074FF0080707D55FEADA
:101850000B7004D52868C760284600F0A9F9B007C6
:1018600006D52868C068800702D0284600F0A2F993
:10187000700607D55FEACA6004D52968102044F4D1
:1018800080640861B00607D55FEA0A7004D528684D
:101890000761284600F0B0F9F00606D5286800690F
:1018A000800702D0284600F0A9F9B00308D55FEA06
:1018B000C96005D5296810204860284600F0C0F9A5
:1018C000F00307D55FEA097004D528684760284609
:1018D00000F0EAF9300446D55FEA497040D5F005DA
:1018E00004D55FEAC87001D044F00104B00504D506
:1018F0005FEA887001D544F00204700504D55FEA00
:10190000487001D544F00404300529D518F0700F53
:1019100026D008F07000402815D006DC102809D029
:1019200020280AD0302816D10AE050280ED060288E
:1019300011D10EE044F008040DE044F010040AE078
:1019400044F0200407E044F0400404E044F0800444
:1019500001E044F480742868816921F0700181619C
:10196000296804204860002C05D0686A204368621A
:101970002846FFF78FFEBDE8F09F70B5040003D046
:1019800094F8200010B104E0012070BD204600F062
:1019900081F82068016821F00201016000F060FC1C
:1019A0000546052604E000F05BFC401B0A2811D820
:1019B000206840688007F6D42068016841F0010182
:1019C000016000F04DFC05460BE000F049FC401BB7
:1019D0000A2806D9606A40F40030606284F820600A
:1019E000D2E720684068C007EFD0207E0128206839
:1019F00001683DD021F080010160607E01282068EF
:101A0000016838D021F040010160A07E01282068E3
:101A1000016833D021F020010160E07E01282068B8
:101A200001682ED041F010010160207F012820685C
:101A3000016829D021F008010160607F0128206839
:101A4000016824D021F004010160D4E902010843B7
:101A5000D4E90412114308436168491E0843216810
:101A6000C86100206062012084F82000002070BD61
:101A700041F08001C0E741F04001C5E741F020019D
:101A8000CAE721F01001CFE741F00801D4E741F0A7
:101A90000401D9E7F0B587B0044614216846FEF783
:101AA00039FC3E4B3E48DFF8F0E01968D4F800C03E
:101AB0003B4A03250226092710300024491CF4451F
:101AC0002AD11960012907D1016841F00071016034
:101AD000006800F000700590106840F00800106089
:101AE0001068CDE9005600F00800CDE904706946A1
:101AF0002C48CDE9024500F0CBFA00220521142044
:101B000000F088FE142000F077FE00220521152049
:101B100000F080FE15203AE0DFF88CE0F44538D183
:101B2000D0F800C04CF0806CC0F800C0D0F800C005
:101B300001290CF0806CCDF814C0196007D1016840
:101B400041F000710160006800F0007005901068BD
:101B500040F002001060106802AB00F00200059037
:101B60006020CDE9000683E8B00069460F4800F028
:101B70008FFA00220521402000F04CFE402000F0AA
:101B80003BFE00220521412000F044FE412000F0F0
:101B900033FE07B0F0BD00000064004028000020C4
:101BA00030380240000C024000680040000402404F
:101BB0007047000010B588B004460C4B6A460021FF
:101BC000FFF769FD08B1FFF7AEFB0948844205D174
:101BD00006490098FFF77CF808B010BD054884421C
:101BE000FAD102490098FFF7C5F8F5E7BC000020DC
:101BF000E40100200C0200207047000010B588B0FE
:101C000004460C4B6A460121FFF745FD08B1FFF77A
:101C10008AFB0948844205D106490098FFF758F825
:101C200008B010BD05488442FAD102490098FFF778
:101C3000A1F8F5E7C4000020E40100200C02002018
:101C40007047000070B5044690F82000012804D0C9
:101C5000606A40F40020606218E0022084F82000EE
:101C60002068016821F00101016000F0F9FA0546E1
:101C70000EE000BF00F0F4FA401B0A2808D9606AA1
:101C800040F400306062052084F82000012070BD1F
:101C900020684068C007EDD1606270BD7047704732
:101CA0007047704770477047704710B5040002D006
:101CB000607910B106E0012010BD0020207120469F
:101CC00000F004F801206071002010BD08B5006824
:101CD0000649884208D10648016841F480510160F4
:101CE000006800F48050009008BD00000030024001
:101CF000303802402DE9F0410446876D00F0B0FA1B
:101D0000064694F835000025022806D0802060653C
:101D100084F834500120BDE8F0812068016821F08A
:101D2000160101602068416921F080014161206C49
:101D300008B9A06C20B12068016821F00801016099
:101D40002068016821F0010101600BE000F088FAD1
:101D5000801B052806D92020606504F8345F032025
:101D60006070D8E720680068C007EFD194F85C1075
:101D70003F208840B86004F8345F01206070002084
:101D8000C9E790F83510022903D080214165012070
:101D90007047052180F835100068016821F00101C5
:101DA00001600020704790F8350070472DE9F84336
:101DB00004464FF00009CDF8009063484FF41651E7
:101DC000A56D0068B0FBF1F72E6894F85C10082050
:101DD00000FA01F131420FD021680A6852070BD591
:101DE0000A6822F004020A6094F85C108840A86037
:101DF000606D40F00100606594F85C104FF00108E0
:101E000008FA01F0304208D021684969090604D572
:101E1000A860606D40F00200606594F85C100420DA
:101E20008840304208D021680968890704D5A86035
:101E3000606D40F00400606594F85C1010208840EC
:101E4000304218D021680968090714D5A8602068B5
:101E50000168490304D50068000308D5A16C07E0B8
:101E60000168C90503D4016821F008010160216CF3
:101E700009B12046884794F85C1020208840304201
:101E800031D021680968C9062DD5A86094F83500BD
:101E900005282068016806D0490347D5006800037B
:101EA0001DD4616C1CE021F01601016020684169BD
:101EB00021F080014161206C08B9A06C20B120683C
:101EC000016821F00801016094F85C103F2088400F
:101ED000A86084F8349084F83580216D1FE0E16BB0
:101EE00009B120468847606D00282BD0606DC0077F
:101EF00014D0052084F835002068016821F0010124
:101F000001600098401C0090B84203D82068006827
:101F1000C007F6D184F8349084F83580E16C00294C
:101F200010D001B02046BDE8F04308470168C9055C
:101F3000D5D4016821F01001016084F8349084F850
:101F40003580CCE7BDE8F883400000202DE9F04162
:101F5000044600F085F906465CB1002584F834504B
:101F6000022084F835002068016821F00101016039
:101F70000DE00120BDE8F08100F072F9801B05281A
:101F800005D920206065032084F83500F2E7206839
:101F90000068C007F0D12268116820480140D4E9E8
:101FA00001031843D4E903363343184363691843E4
:101FB000A3691843E3691843236A18430843616A15
:101FC000042903D1D4E90B13194308431060206896
:101FD0004069666A20F0070130460E430127042855
:101FE0000CD1A06A0643E06A40B12046FFF75CF9D5
:101FF00020B14020606584F83570BAE720684661FA
:102000002046FFF73DF994F85C203F219140816024
:10201000656584F835700020ACE700003F8010F063
:102020002DE9F0410446866D90F834000025012822
:102030000DD0012084F8340094F835700020012F71
:1020400007D084F8340002252846BDE8F08102203C
:10205000FBE7022784F8357060652046FFF74EF9EC
:1020600094F85C103F208840B0602068016841F01F
:1020700016010160206C20B12068016841F0080160
:1020800001602068016841F001010160DCE70000A7
:102090002DE9F84F00224FF0010803254FF00F0EF5
:1020A0000B6808FA02F42340A3426ED14E68012E59
:1020B00005D0022E03D0112E01D0122E12D1866827
:1020C0004FEA420C05FA0CF7BE43CF6807FA0CF74B
:1020D000374387604668A6430C79C4F300149440E4
:1020E00034434460C668570005FA07FC8C6826EA4A
:1020F0000C06BC403443C4604C68022C01D0122C46
:1021000013D1D40800EB8404A346D4F820905407DC
:102110004FEAD46A0EFA0AF629EA06090E6906FAA7
:102120000AF646EA0906CBF8206006680C7926EA2A
:102130000C0604F00304BC40344304604C68E40023
:1021400065D5364C266846F480462660246822F021
:10215000030604F480440094314C3444A446D4F87B
:1021600008489607370F0EFA07F6B4432D4EB042D3
:1021700001D1002624E02C4EB04201D101261FE0FF
:102180002A4EB04202D102261AE040E0284EB04268
:1021900001D1032614E0274EB04201D104260FE0FE
:1021A000254EB04201D105260AE0244EB04201D1AD
:1021B000062605E0224EB04201D1072600E008269F
:1021C000BE402643CCF808681E4E34684F689C43D6
:1021D000FF0300D51C4334601A4C241D26684F6849
:1021E0009E43BF0300D51E432660164E0836346852
:1021F0004F689C43FF0200D51C433460114E0C36DF
:1022000034684F689C43BF0200D51C433460521CA5
:10221000102AFFF445AFBDE8F88F000044380240B3
:10222000003001400000024000040240000802406B
:10223000000C02400010024000140240001802404E
:10224000001C0240003C0140426931EA020200D118
:102250000904816170470AB1816170470904FBE795
:1022600001488068704700003400002070477047C4
:102270002DE9F041026800245168C76A90F83E5089
:1022800090F83D60102D1CD0402D1AD0036C002B0F
:102290007ED053694FF02805DB439F0779D4CF43A5
:1022A000BF0576D4016C01B1946990F83D300021EE
:1022B0009D430B466ED0C91E516180F83C30BDE88D
:1022C000F081946953694FF42A0CDB435FEAC37EC3
:1022D0004FF02A4604D06745F1D0B742EFD010E066
:1022E000CF43BF050DD4C16A614501D1012103E08F
:1022F000C16AB14201D10821C162BDE8F04101F0DB
:10230000CDBF1E0716D4CE43B60513D4416CC9B257
:102310001161416B11B9826B002AD0D0C96B19B918
:10232000816BC96B0029CAD00068416841F4006123
:102330004160C4E79E0706D4CE43B60503D4BDE88A
:10234000F04101F01FBFE443526864074FEA0252B4
:102350001BD4002AB3DB1A0608D4CA43520505D49D
:102360005A0705D5BDE8F04101F0B0BE5A07A6D422
:10237000C9438905A3D4102D03D0BDE8F04101F075
:10238000D3BFBDE8F04101F067BE002A97DB02E051
:1023900015E029E015E05A0608D4CA43520505D4D1
:1023A0005A0705D5BDE8F04101F0E2BD5A0786D4D1
:1023B000C943890583D4BDE8F04101F06FBD94693C
:1023C00067E7556825F480655560E243540700D5FA
:1023D0000121120601D5828900E0028B80F83C3091
:1023E00092B2FFF744FF6AE7DC0606D4CC43A405AB
:1023F00003D4BDE8F04101F0E7BF212E27D0292EFC
:1024000025D05C0655D4CC43640552D45B0752D525
:1024100090F83D10438D002B8BD01269436A1A70DF
:10242000426A521C4262428D521E4285428D002AEF
:10243000D9D12A29D7D101684A6822F480624A603A
:102440002221016380F83D5000F05CF937E71C065B
:1024500023D4CC43640520D45B0720D590F83D10ED
:10246000438D002BBFD0436A1B781361426A521C14
:102470004262428D521E4285428D002AB3D12929E3
:10248000B1D101684A6822F480624A602121016367
:1024900080F83D5000F037F911E75B07A3D4C9433A
:1024A0008905A0D4418D00299DD0416A0978116128
:1024B0000AE05B0797D4C943890594D4418D00296C
:1024C00091D01169426A1170416A491C4162418D83
:1024D000491E4185F3E6704770B5040025D094F895
:1024E0003D00002520B984F83C50204600F0BEF89D
:1024F000242084F83D002068016821F0010101607A
:102500002068016841F4004101602068016821F4FD
:102510000041016000F06AFA4D4A6168914201D8B9
:102520004C4900E04C49884201D2012070BD4B4922
:102530002368B0FBF1F15E6826F03F060E435E6053
:102540006368934206D94FF4967359434FF47A73F4
:10255000B1FBF3F12368491C1E6A26F03F063143A4
:1025600019626168914210D84900401EB0FBF1F237
:10257000521CC2F30B02042A01D2042022E0B0FB59
:10258000F1F0401CC0F30B001CE0A268F2B301EBB9
:10259000C10303EB0116431EB3FBF6F35B1C43F4CC
:1025A00080431B0549D092B301EBC10202EB01113C
:1025B000401EB0FBF1F0401CC0F30B0040F4804023
:1025C00040F400402168CA694CF6FF739A431043F7
:1025D000C861D4E9071001432068026822F0C002F4
:1025E00011430160D4E9030101432068826848F285
:1025F000FF339A4311438160D4E905010843216800
:10260000CA6822F0FF021043C86001E00EE016E045
:102610002068016841F0010101602564202084F8F0
:102620003D00256384F83E50002070BD01EB41065B
:10263000431EB3FBF6F35B1CB3E70120C2E701EBDB
:102640004101401EB0FBF1F0401CC0F30B00B7E7A6
:10265000A086010080841E0000093D0040420F005A
:10266000704770477047704770470000F0B587B0FB
:10267000044614216846FDF74DFE1E492068884235
:1026800035D11D48016841F004010160016801F085
:1026900004010591016841F0010101600068122404
:1026A00000F0010005904FF4007001250326042777
:1026B0008DE8F10069461148FFF7EAFC28028DE831
:1026C000F10069460E48FFF7E3FC0B481030016843
:1026D00041F4000101600068002200F40000059050
:1026E0000521482000F096F8482000F085F807B052
:1026F000F0BD0000005C004030380240000802409D
:102700000000024070477047024881680278114417
:1027100081607047340000200B4810B5016841F417
:1027200000710160016841F480610160016841F459
:1027300080710160032000F08DF8002000F006F8A1
:1027400000F03EF8002010BD003C024010B50146EC
:1027500088B00022372000F05DF8372000F04CF8F8
:1027600013480024016841F020010160006805A9B8
:1027700000F020000690684600F018F900F036F9E5
:102780000C494000B0FBF1F10C480B4A491E0260B5
:1027900040F2E732C0E90324C0E9011400F09CFDD7
:1027A00010B1012008B010BD044800F0FDFDF9E7AC
:1027B0004038024040420F00001400404005002015
:1027C0000C4882B0016841F480410160006800F467
:1027D000804000900748001F016841F0805101606F
:1027E0000068002200F0805000900F21901E02B07F
:1027F00000F010B844380240002809DB00F01F0246
:10280000012191404009800000F1E020C0F8001152
:1028100070470000F0B40E4B1B680C46C3F3022354
:10282000C3F10705042D00D90425191D072901D27C
:10283000002300E0DB1E012606FA05F1491E2140B7
:1028400099409E40761E16403143F0BC03F0D4BB45
:102850000CED00E0064900F0070208684FF6FF03A0
:10286000184040EA0220034A104308607047000005
:102870000CED00E00000FA052DE9F0470E460500DA
:1028800065D0DFF81481D8F80000F7B200F00F002F
:10289000B04207D288F80070D8F8000000F00F00AE
:1028A000B04254D128683D4C810712D5400703D56A
:1028B000206840F4E05020602878000703D52068A5
:1028C00040F4604020602068A96820F0F0000843D0
:1028D00020602878C0072DD0304968680839012861
:1028E00012D0022813D0032811D0096889070029C3
:1028F0002DDA216821F0030101432160FFF7B0FCCC
:10290000814641F2883A0EE009688903EFE70968D9
:102910008901ECE7FFF7A4FCA0EB0901514502D9BE
:102920000320BDE8F0872068696800F00C00B0EB78
:10293000810FEFD1D8F80010404601F00F01B142ED
:1029400007D90770006800F00F00B04201D00120E5
:10295000E7E72878400705D52068E96820F4E050CB
:10296000084320602878000706D52068296920F4EC
:10297000604040EAC100206000F058F82168084A31
:10298000C1F30311515CC84006490860064800685D
:10299000FFF7DCFE0020C4E7003C0240083802409C
:1029A0006099000840000020380000200F220260DB
:1029B0000C4A136803F003034360136803F0F00349
:1029C0008360136803F4E053C36012684FF4E0536C
:1029D00003EAD20202610448006800F00F000860B8
:1029E0007047000008380240003C02400448054996
:1029F00000680968044AC1F38221515CC8407047ED
:102A00004000002008380240709900080448054939
:102A100000680968044AC1F34231515CC8407047FC
:102A2000400000200838024070990008154810B591
:102A3000006810F00C02144813D01449042A0FD077
:102A4000082A0ED10F4C241F2268236802F03F028F
:102A50005B0207D52068C0F38810A0FB010106E0E7
:102A6000084610BD2168C1F38811A1FB00010023B5
:102A7000FDF706FC2168C1F30141491C4900B0FB88
:102A8000F1F010BD083802400024F400001BB7002C
:102A90002DE9F84F04006ED02078DFF83C93C00792
:102AA000A9F104054AD009F104000168C1F38101CC
:102AB000012908D00068C0F3810002280AD1D9F8A2
:102AC0000000400206D52868800337D560680028DA
:102AD000E1D033E06068B0F5803F10D0B0F5A02FB2
:102AE000286810D020F480302860286820F48020E6
:102AF00028606068A8B1FFF7B3FB06460DE02868C0
:102B000040F48030F4E740F480202860F7E700BF0D
:102B1000FFF7A6FB801B642873D828688003F7D5CD
:102B20000CE0FFF79DFB064605E000BFFFF798FBB2
:102B3000801B6428F0D828688003F7D42078DFF859
:102B40009C8280074FF0000A3ED5A348001D016813
:102B500011F00C0F08D00068C0F3810002280BD1DF
:102B6000D9F80000400207D42868800716D5E0682D
:102B7000012800D112E02BE1E068B8B10120C8F8CB
:102B80000000FFF76DFB064605E000BFFFF768FB9E
:102B9000801B0228C0D828688007F7D528682169DB
:102BA00020F0F80040EAC10028600DE0C8F800A05D
:102BB000FFF756FB064604E0FFF752FB801B022896
:102BC0001FD828688007F7D42078000722D5824EC6
:102BD00083486169703671B101210160FFF740FBE4
:102BE000074604E0FFF73CFBC01B022809D8306809
:102BF0008007F7D50EE0C0F800A0FFF731FB0746CD
:102C000005E082E0FFF72CFBC01B02287DD830686E
:102C10008007F7D42078400768D5DFF8BCB10027DB
:102C20000BF13C0BDBF80000C0000BD4DBF800100C
:102C300041F08051CBF80010DBF80000012700F0D4
:102C400080500090674E3068C00510D4306840F462
:102C500080703060FFF704FB009005E0FFF700FB99
:102C60000099401A022850D83068C005F6D55A4E4F
:102C7000A0686C3601280FD00528306810D020F0ED
:102C800001003060306820F004003060A068B8B106
:102C9000FFF7E6FA00900FE0306840F00100F4E73B
:102CA00040F004003060F7E7FFF7DAFA0099411AC4
:102CB00041F28830814266D830688007F4D50EE052
:102CC000FFF7CEFA009007E0FFF7CAFA0099411A21
:102CD00041F28830814256D830688007F4D42FB151
:102CE000DBF8001021F08051CBF80010A069C8B3C8
:102CF0003949091D0968C1F3810102294AD0022816
:102D0000504607D0C8F8600000E03CE0FFF7A8FAA2
:102D100004463BE04746C8F86000FFF7A1FA0646C4
:102D200005E000BFFFF79CFA801B02282BD828681B
:102D30008001F7D4D4E907010843A16A2A4A490867
:102D400002EB0141626A41EA8211084394F82C10B7
:102D500040EA0161C9F8001001203866FFF780FAE7
:102D6000044606E036E000BFFFF77AFA001B0228AF
:102D700009D828688001F7D52CE000BFFFF770FA6A
:102D8000001B022802D90320BDE8F88F28688001C3
:102D9000F4D41FE00128F7D0D9F80000E26900F46C
:102DA0008001914214D1226A00F03F0191420FD17B
:102DB00047F6C071626A0140914209D1A26A00F4EB
:102DC0004031914204D1E16A00F07060884201D044
:102DD0000120D9E70020D7E704380240000047422D
:102DE000800E4742007000400000FFFF7047000067
:102DF00038B5016804464A688868C043430606D56A
:102E0000C30704D1D3435B0601D4216C05E08307DB
:102E100008D4D3431B0605D4616C01B02046BDE83D
:102E200030400847830603D5430601D5C30551D476
:102E3000D3439B064ED443060AD494F85130032B57
:102E400049D0636D43F004036365CB688B680093DE
:102E5000830609D4636D43F0010363658B680093B7
:102E60000B6823F040030B60C00506D4606D40F092
:102E700008006065206880680090606D002829D097
:102E80002068416821F0E0014160012084F8510090
:102E9000900701D4D00722D02068416821F00301B7
:102EA0004160114DE06C40B10565E06CFEF769FFD3
:102EB00018B1606D40F040006065A06C002809D03A
:102EC0000565A06CFEF75DFF002803D0606D40F043
:102ED0004000606538BDC8688868009038BD2046ED
:102EE000FFF784FF38BD00005556000870B5040098
:102EF00005D00025A56294F8510010B106E001202C
:102F000070BD84F85050204600F030F8022084F85C
:102F100051002068016821F040010160D4E90101FD
:102F20000843D4E903121143084361690843218B24
:102F300001F400710843E1690843216A0843A16A6A
:102F4000084321680860A069042101EA1040616A11
:102F50000843216848602068C16921F40061C161AB
:102F60006565012084F85100002070BDF0B587B080
:102F7000044614216846FDF7CDF9204920688842AF
:102F80003AD11F480024016841F480510160006873
:102F900000F4805005901A481438016841F002018D
:102FA0000160016801F002010591016841F0010131
:102FB00001600068022500F0010005901820CDE9AD
:102FC000000502AA0326052782E8D00069460D48BD
:102FD000FFF75EF88020CDE9000502AA694682E885
:102FE000D0000948FFF754F8002205212320FFF7FD
:102FF00011FC2320FFF700FC07B0F0BD00300140BA
:103000004438024000040240000002402DE9F84F1D
:10301000044690F8500000270A9E1D4692468B46B3
:103020004FF0010901280ED0012084F85000FFF76D
:1030300017F9804694F85100616801280CD0B1F569
:10304000827F07D102E00220BDE8F88FA16809B9AC
:10305000042801D00227C2E0BBF1000F27D0BAF14B
:10306000000F24D01DB394F85100042802D005208D
:1030700084F8510000206065C4F838A0E587A58772
:10308000C4F830B0E586A5862064606420680168D5
:10309000490603D4016841F040010160E068B0F5E1
:1030A000006F606805D0E8B3012D46D07FE00127AE
:1030B00095E008B1012D39D1206B21680088C860E6
:1030C000206B801C2063E08E401EE0862EE020688E
:1030D000816889070FD5E18E69B1B9F1010F0AD175
:1030E000216B0988C160206B801C2063E08E401E2C
:1030F000E0864FF0000920688168C9070CD0E18F95
:1031000051B1C068A16B0880A06B801CA063E08FE8
:10311000401EE0874FF00109FFF7A2F8A0EB08007E
:10312000B04200E009E001D3701C50D1E08E0028CD
:10313000CDD1E08F0028CAD13FE0206B2168007814
:103140000873206B401C2063E08E401EE0862EE05A
:103150002068816889070FD5E18E69B1B9F1010F47
:103160000AD1216B09780173206B401C2063E08E2B
:10317000401EE0864FF0000920688168C9070CD026
:10318000E18F51B1C068A16B0870A06B401CA063B7
:10319000E08F401EE0874FF00109FFF761F8A0EBD8
:1031A0000800B04202D3701C01D010E07EB1E08E66
:1031B0000028CDD1E08F0028CAD1424631462046B2
:1031C00002F050FA28B101272020606507E00327AC
:1031D00005E0A06818B92068C168806800900120E7
:1031E00084F85100002084F8500038462CE77047DE
:1031F000704710B590F83C20012A22D0012280F8B7
:103200003C20CA688C6822F4407222434C6822F445
:10321000806222430C6822F4006222430C6922F48B
:10322000805222434C6922F400522243C969002390
:1032300022F480420A4301684A6480F83C3000204E
:1032400010BD022010BD000070B590F83C20012A8E
:1032500032D0012480F83C40022280F83D200368EF
:103260005A689D6822F070060A6832435A60134B10
:1032700002689A4214D0B2F1804F11D0104B9A429A
:103280000ED0104B9A420BD00F4B9A4208D00F4BE6
:103290009A4205D00E4B9A4202D00E4B9A4204D16C
:1032A000496825F080031943916080F83D40002172
:1032B00080F83C10084670BD022070BD000001403F
:1032C0000004004000080040000C004000040140E1
:1032D000004001400018004010B5040003D094F8ED
:1032E0003D0010B107E0012010BD002084F83C0033
:1032F000204600F00DF8022084F83D00211D2068D2
:1033000002F084FB012084F83D00002010BD000085
:1033100008B5184A01681848914211D1016841F076
:10332000100101600068002200F0100000900521EB
:103330003620FFF76FFABDE808403620FFF75CBA89
:103340000E4A914209D10C48001D016841F4003138
:103350000160006800F4003009E0094A914207D199
:10336000016841F480710160006800F48070009091
:1033700008BD0000001000404038024000440140F9
:1033800000200040022180F83D1001688A6802F0A8
:103390000702062A03D00A6842F001020A600121EE
:1033A00080F83D10002070470168CA6842F00102B1
:1033B000CA600068816801F00701062903D001682E
:1033C00041F00101016000207047022180F83D10AA
:1033D00001680A6A41F211131A4207D10A6A9B1066
:1033E0001A4203D10A6822F001020A60012180F822
:1033F0003D1000207047704770B5044600680169B1
:103400004FF00005C943890715D4C168C94389072E
:1034100011D4E91E016101202077206880698007AE
:10342000204602D0FFF7E7FF04E000F0F3F8204663
:1034300000F096F9257720680169C943490717D438
:10344000C168C943490713D46FF004010161022028
:1034500020772068806910F4407F204602D0FFF773
:10346000CAFF04E000F0D6F8204600F079F925778D
:1034700020680169C943090716D4C168C94309070F
:1034800012D46FF008010161042020772068C06920
:103490008007204602D0FFF7AEFF04E000F0BAF844
:1034A000204600F05DF9257720680169C943C90607
:1034B00017D4C168C943C90613D46FF01001016164
:1034C000082020772068C06910F4407F204602D091
:1034D000FFF791FF04E000F09DF8204600F040F96E
:1034E000257720680169C943C90708D1C168C94364
:1034F000C90704D1891E0161204600F083F92068C4
:103500000169C943090609D4C168C943090605D43C
:103510006FF0800101612046FFF769FE20680169B4
:10352000C943490609D4C168C943490605D46FF0A7
:1035300040010161204600F06FF920680169C9432C
:1035400089060BD4C168C943890607D46FF02001EE
:1035500001612046BDE87040FFF74ABE70BD000023
:1035600010B586B0044614216846FCF7D3FE2368E4
:10357000214C002121480222A34211D1036843F0CB
:1035800010030360006800F0100005901002009026
:10359000CDE901210120CDE903106946184812E068
:1035A000184CA34213D1036843F00803036000687A
:1035B00000F00800059020140090CDE90121CDE92C
:1035C000031269461048FEF763FD06B010BD0F4CAC
:1035D000A342FAD1036843F020030360006800F0BF
:1035E0002000059040200090CDE901210320CDE985
:1035F000031069460648E6E7000001403038024003
:103600000010024000080040000C0240004401404D
:1036100000140240704770B5044690F83C000D4617
:1036200001280DD0012684F83C60022084F83D007A
:1036300042B1042A18D0082A2AD00C2A4DD139E0E8
:10364000022070BD206802F053FA2068816941F0C1
:10365000080181612068816921F00401816120688D
:1036600081692A69114311E0206802F071FA20682B
:10367000816941F4006181612068816921F4806180
:103680008161206881692A6941EA0221816124E01F
:10369000206802F093FA2068C16941F00801C16115
:1036A0002068C16921F00401C1612068C1692A69EB
:1036B000114311E0206802F0B5FA2068C16941F4B5
:1036C0000061C1612068C16921F48061C161206825
:1036D000C1692A6941EA0221C16184F83D60002084
:1036E00084F83C0070BD10B5040003D094F83D0090
:1036F00010B107E0012010BD002084F83C002046F6
:1037000000F00CF8022084F83D00211D206802F032
:103710007DF9012084F83D00002010BD08B5006847
:103720000C49884208D10C48016841F00101016050
:10373000006800F001000BE00849884209D1064802
:10374000001F016841F004010160006800F00400FE
:10375000009008BD000001404438024000080040CD
:103760007047000010B504460068012202F0B2F96B
:103770000B492068884202D00A49884203D1416C33
:1037800041F4004141642068816801F00701062985
:1037900003D0016841F001010160002010BD00006C
:1037A000000001400004014010B5044600680022FA
:1037B00002F090F9114841F21112216893108142F0
:1037C00002D00F48814209D1086A104206D1086A26
:1037D000184203D1486C20F4004048642068016A14
:1037E000114206D1016A194203D1016821F0010199
:1037F0000160012084F83D00002010BD0000014060
:103800000004014000680349884201D1FEF77CBFF3
:103810007047000000140040704710B5044600686F
:10382000416994F83920C1F3C011212A0BD151B15B
:10383000416921F080014161206B08B1FEF75AFA1D
:10384000204602F081FA2068416994F83A20C1F3D9
:103850008011222A0BD151B1416921F0400141610F
:10386000606B08B1FEF746FA204602F05FFA0020CE
:1038700010BD704770B5026804461068D16853697E
:1038800010F00F0F52D003F0010501F490762E4393
:103890005FD0C20705D0CA0503D5E26B42F0010232
:1038A000E263420705D5DA0703D0E26B42F0020279
:1038B000E263820705D5DA0703D0E26B42F0040227
:1038C000E263020707D501F020022A4303D0E26B2E
:1038D00042F00802E263E26B002A33D0800604D58E
:1038E000880602D5204602F038FA20684069E16B6C
:1038F000C0F38010090700D428B3204602F016FA5E
:103900002068416949061AD5416921F040014161A9
:10391000606BA0B11B490165606BFEF732FA0028AD
:1039200010D0606B016DBDE870400847830610D56C
:103930008B060ED52046BDE8704002F00EBA204638
:10394000FFF797FF70BD2046FFF793FF0020E0636D
:1039500070BD030606D50B0604D52046BDE87040B1
:1039600002F0DABA4006F3D54806F1D5D168204610
:1039700021F04001D160202184F8391000F07BF95A
:1039800070BD00008D5C000870B5040004D094F890
:103990003900002510B106E0012070BD84F83850D0
:1039A000204600F023F8242084F839002068C168FC
:1039B00021F40051C160204602F01AFA2068016922
:1039C00021F4904101612068416921F02A0141619F
:1039D0002068C16841F40051C160E563202084F88B
:1039E000390084F83A00002070BD0000F0B587B0BF
:1039F000074614216846FCF78DFC5649DFF850C194
:103A00003B680024534A14390225032607206345E6
:103A100033D1136843F010031360126802F01002F0
:103A200005920A6842F002020A600A6802F0020285
:103A300005920A6842F001020A600968074601F02F
:103A4000010105918021CDE9001502AB694683E8AB
:103A5000D0004148FEF71CFB2802CDE9000502AB6F
:103A6000694683E8D0003D48FEF712FB002205219D
:103A70002520FEF7CFFE25203FE0DFF8E4C06345B8
:103A80003FD1344A121F136843F480231360126835
:103A900002F4802205920A6842F004020A60096872
:103AA000029401F0040105914FF44061CDE9001545
:103AB000CDE9036069462B48FEF7EAFA2B4D2A4808
:103AC00028604FF00060C5E901044014C5E90340D7
:103AD0006C614FF44030AC61C5E9074028466C6228
:103AE000FEF734FA08B1FDF71EFC7D6300220521C4
:103AF0002720AF63FEF78EFE2720FEF77DFE07B07E
:103B0000F0BD1B488342FAD1106840F020001060DD
:103B1000106800F020000590086840F04000086040
:103B20000868029400F0400005904FF48440CDE90D
:103B300000050820CDE9036069460E48FEF7A8FAA3
:103B4000002205214720FEF765FE4720D5E700004B
:103B500000100140443802400004024000000240CE
:103B6000004800400008024028600240E0040020B5
:103B70000014014000180240F8B5044690F83A00DD
:103B800020283CD1C1B3BAB394F83800012836D00C
:103B9000012084F83800A162A2850025E563222077
:103BA00084F83A00636B1748D863636B164818644F
:103BB000636B1648D864606B134605650846666BF0
:103BC000216802463046091DFEF72AFA206801687E
:103BD0004168009184F83850C16841F48071C16037
:103BE0002068416941F0010141612068416941F06B
:103BF000400141610020F8BDFFE70120FBE7022002
:103C0000F9E70000E75C0008235D00089D5C000800
:103C100090F83A30202B22D1F9B1F2B190F8383037
:103C2000012B1CD081628285C2850021C1632222C2
:103C300080F83A2080F838100168CA6842F480722F
:103C4000CA6001684A6942F001024A610068C168BD
:103C500041F02001C1600020704701207047022020
:103C6000704700000249884201D101F0D5B8704781
:103C7000A004002070477047FEE700000148FEF7EF
:103C8000F7BA00003402002038B5806B002190F8AC
:103C90003D202B4B46F2A8141B68B3FBF4F3C3EB97
:103CA000C30303EB830300933BB15B1E00930368E4
:103CB0001B689B0505D5009BF6E7036C43F02003CA
:103CC0000364436B03B1D963836B03B1D9630368A6
:103CD0001C6824F480641C604185436B03B1196542
:103CE000836B03B1196503681C6824F001041C6030
:103CF00090F83D402023602C0BD0282434EA0202A7
:103D00000FD080F83D3080F83E1000BFFEF7E3FB97
:103D100038BD80F83D3080F83E100164FEF7A6FA09
:103D200038BD0268136843F001031360026813682A
:103D300043F480631360016380F83D40E6E70000D0
:103D40004000002070B5044690F83D0094F83E1005
:103D5000102901D0402906D1222804D121680A68FF
:103D600022F400620A60282131EA00024FF00005C7
:103D70004FF0200626D021684968090505D460283F
:103D800003D084F83D6084F83E5025632068416884
:103D9000090537D5416821F400614160606B90F8F6
:103DA00035203C49012A11D00165606BFDF7E9FF20
:103DB00038B32068016821F00101016084F83D609A
:103DC000606B1CE0256384F83D10DFE7A06B0165A4
:103DD000A06BFDF7D6FFA0B120684169C943490631
:103DE00005D40069616A0870606A401C60622068DE
:103DF000016821F00101016084F83D60A06B016D54
:103E0000884710E094F83D10602910D04169C943FB
:103E1000490605D40069616A0870606A401C6062E6
:103E20002046FEF758FB206CC1071CD115E084F832
:103E30003D6025644169C943490605D40069616A4A
:103E40000870606A401C60622068016821F001010E
:103E500001602046FEF70AFAE5E7810703D441072F
:103E600001D4000704D52068416821F4E061416075
:103E700094F83D00216C49070BD5282809D1064844
:103E8000E062256384F83D6084F83E502046FEF7EA
:103E9000E7FB70BD893C00080000FFFF10B5C26A57
:103EA000438D0168042B06D0438D032B08D0438D2E
:103EB000022B1DD012E04A6822F480624A600CE0B6
:103EC0004B6823F480634B60042A06D0022A04D096
:103ED00001680A6822F480620A6001680969426A1E
:103EE0001170416A491C4162418D491E418510BDD6
:103EF000012A30D0102A2ED0042A30D0022A2ED007
:103F00000A6842F400720A6001680969426A117025
:103F1000416A491C4162428D521E42850268126903
:103F20000A70416A491C4162418D491E4185016800
:103F30004A6822F440724A60202180F83D1090F8CF
:103F40003E200021402A80F83E100CD0122101634F
:103F5000FEF787FB10BD0A6822F48062D3E70A6887
:103F600042F48062CFE70163FEF77DFB10BD0000E5
:103F700038B590F83D10222914D1418D032912D96A
:103F800001680969426A1170416A491C4162418DA8
:103F9000491E4185418D032904D10068416821F4FF
:103FA0008061416038BDC26A022AFBD0012901D07C
:103FB0000029F7D1274946F2A81300220968B1FB6E
:103FC000F3F101EB8101009101682023009C641E44
:103FD000009422D00C68A405F8D40C6824F4806402
:103FE0000C6001684C6824F4E0644C600168096965
:103FF000446A2170416A491C4162418D491E4185D4
:1040000080F83D3090F83E1080F83E2040291DD0C9
:1040100012210163FEF725FB38BD046C44F0200437
:1040200004644C6824F4E0644C6001680969446AE3
:104030002170416A491C4162418D491E418580F8C9
:104040003D3080F83E20FEF746FA38BD0263FEF7A9
:104050000AFB38BD4000002010B5C16A90F83D2031
:10406000212A0BD1428D52B1416A0268097811614F
:10407000416A491C4162418D491E418510BD0022A3
:104080002023082910D020290ED011F5803F0BD015
:1040900001684C6824F4E0644C601121016380F8ED
:1040A0003E2080F83D300EE001684C6824F4E06466
:1040B0004C6001680C6844F400740C60026380F882
:1040C0003D3080F83E20FEF7CDFA10BD10B590F8D7
:1040D0003D1090F83E30C26A048DB4B1212903D05E
:1040E000402B11D122290FD1418DE1B390F83E1020
:1040F000402942D0416A026809781161416A491C2D
:104100004162418D491E418510BD2129E8D12023FE
:104110000021082A13D0202A11D012F5803F0ED09A
:104120000268546824F4E06454601122026380F849
:104130003E1080F83D3000BFFEF794FA10BD0268D3
:10414000546824F4E06454600268146844F4007411
:104150001460016380F83D3090F83E2080F83E10F6
:10416000402AE9D100E002E0FEF77EFA10BD0068C7
:10417000416821F48061416010BDBDE8104000F04D
:10418000D3B8000078B590F83E50C26A036B90F83F
:104190003D6000240168222E7AD1066D0EB9402DB3
:1041A00076D0056D1DB90569B5F5404F09D0458D2F
:1041B00005B3468D384D012E0ED0438D022B3AD0DB
:1041C0005DE04A698A6900920A6842F480720A6076
:1041D000016D491C016578BDAA4213D10A6822F419
:1041E00080620A6001684A68120503D50A6822F4F1
:1041F000806216E04A698A6900920A6842F4007295
:104200000A6039E0082A10D0202A0ED0122B0AD0DA
:10421000042A03D0022A01D0102AE7D10A6842F406
:1042200080620A6024E0012AE0D00A6822F48062F9
:104230000A600168DEE7042A21D0022A1FD0102A72
:104240001DD00B6823F480630B6001680B6843F496
:1042500000630B6001684B681B0509D5AA4212D0A8
:10426000012A10D0082A0ED0102A0CD0202A0AD0F9
:1042700001684A6989690091046578BD08E00B68A6
:1042800043F48063E5E74A6842F480524A60EFE70E
:10429000486988690090F0E70000FFFF90F83E1041
:1042A000402910D00169B1F5804F19D0016DA9B333
:1042B000016D012910D1416C5FF0F10201F44071F0
:1042C00042EAD11106E0016D0029416C05D0C9B266
:1042D00041F0010100680161704701F0FE01F9E75A
:1042E00090F83D102129416C09D0C9B241F001017B
:1042F00002681161416B29B1C96B49B902E001F053
:10430000FE01F5E7816B0029E6D0C96B0029E3D0F7
:104310000068416841F4006141607047FFE7416C0B
:10432000F02201F44071CBE710B590F83D10026D1A
:1043300022B3026D012A2FD0026D022A1DD122293B
:1043400031D0428D0AB1212933D0428D002A14D1B7
:10435000212912D101684A6822F4E0624A600168AA
:104360000A6842F400720A6000210163202280F88A
:104370003D2080F83E10FEF777F910BDC16C012991
:10438000816C02D0C1F3072108E00268C9B2116153
:10439000016D891C016510BD816CC9B20268116193
:1043A000016D491CF6E70068016841F48071016005
:1043B00010BD416A026809781161416A491C416275
:1043C000418D491E418510BDF8B590F83D60044609
:1043D0000068416821F4E06141602068002541697E
:1043E0000091016841F0010101602068016821F439
:1043F0008061016020684168090520D5474F222E61
:1044000048D02A2E46D0616B096849686185618D64
:1044100019B1216C41F004012164416821F400616B
:104420004160606BFDF7BFFC012808D0606B076539
:10443000606BFDF7A6FC10B1606B016D8847608D65
:1044400008B320684169C943490708D40069616A13
:104450000870606A401C6062608D401E6085206844
:104460004169C943490608D40069616A0870606AF5
:10447000401C6062608D401E6085608D18B1206CAC
:1044800040F004002064206C00B32046BDE8F840F2
:10449000FFF758BCA16B096849686185618D19B146
:1044A000216C41F004012164416821F40061416004
:1044B000A06BFDF778FC0128C1D0A06B0765A06B4D
:1044C000FDF75FFC0028BAD0A06BB6E72A2E06D114
:1044D0002563282084F83D002046FEF713F994F860
:1044E0003D10202028290DD0216B222901D0222E19
:1044F00007D1256384F83D0084F83E502046FEF73E
:1045000001F9F8BD0649E162256384F83D0084F8AD
:104510003E502046FEF7A4F8F8BD0000893C000894
:104520000000FFFF10B5074C204684ED080A00F09C
:1045300095FC94ED0A0A0449BCEEC00A10EE100A7C
:10454000086010BD148800203444014010B53421A7
:104550000E48FBF7DFFE0D489FED0D0A80ED000AC7
:104560009FED0C0A80ED010A9FED0B0A80ED020A17
:104570009FED0A0A80ED070A9FED090A80ED0B0AFC
:104580009FED080A80ED090A10BD00001488002084
:104590000000C844CDCC4C3E000000000000804824
:1045A00000A08C450000204210B51949F7EE000A22
:1045B0009FED180AC1ED090A81ED0A0A81ED0B0A87
:1045C00081ED0C0AB3EE041A81ED041A9FED121A64
:1045D000044681ED051A81ED060A81ED070A81ED99
:1045E000080AC1ED030A0D4800F026F80C4800F057
:1045F00023F80C4800F020F843F214010A48FBF7B6
:1046000089FE2046BDE810406821FBF783BE00000C
:10461000CC00002000000000CDCCCC3D785600201E
:10462000D8560020385700209857002001490968C3
:10463000084070472C0100209FED090A80ED000A18
:1046400080ED0B0A9FED070A80ED0C0AB6EE000A1A
:1046500080ED0D0AB7EE000A80ED0E0A70470000EB
:104660006F12833A0AD7A33B90ED0F3AD0ED013A8F
:1046700090ED004A30EEC31AD0ED0B1A41EE043A29
:1046800090ED041A31EEC12AD0ED051A72EE615A8E
:10469000C0ED075A90ED062AF1EE422AC0ED082A35
:1046A000C0ED092AD0ED0C4A02EE841AC0ED0A4A88
:1046B00090ED035A42EE841A70EE632A05EE845A96
:1046C00004EE842AC0ED102A90ED0E4A24EE050A6D
:1046D00064EE216A80ED110AC0ED126A90ED0D6A58
:1046E00004EE006A24EE014A80ED136AC0EE064A29
:1046F000C6EE865AC0ED144A04EEC05A04EEC41A3F
:10470000C0ED155A80ED160A45EEC01AB0EE630AE8
:1047100005EEA23A04EEA20A80ED174A80ED035A94
:1047200005EEC42A70EEC30A80ED010A80ED0F3A4F
:10473000C0ED020A103080EC031A7047084890F868
:104740006C1000290AD090F82810C90706D090F8FC
:104750002A10C90702D1C16AC943C162704700006B
:10476000684E002010B50E4C0E48216821B1012979
:1047700005D002290AD10DE04FF4806101E04FF429
:104780000061FDF761FD2068022806D02068401C0A
:10479000206010BD4FF48051F3E70020F8E70000DF
:1047A00000000020001C0240024A002142F82010B4
:1047B0007047000048880020104810B50E4901607D
:1047C0000221416000214FF04072C0E902129211B3
:1047D00002614FF4A0024261017641768176C17692
:1047E00001774177FDF7C9F8002803D0BDE81040F4
:1047F000FCF799BD10BD000000640040E4010020FA
:10480000104810B50E4901600221416000214FF0AF
:104810004072C0E90212921102614FF4A00242619B
:10482000017641768176C17601774177FDF7A5F86B
:10483000002803D0BDE81040FCF775BD10BD000096
:10484000006800400C020020074910B505480860C8
:104850000846FDF72AFA002803D0BDE81040FCF70F
:1048600062BD10BD003002402C000020094808B590
:10487000016841F4001101600068002200F400109A
:10488000009005210C20FDF7C5FFBDE808400C2075
:10489000FDF7B2BF3038024010B5254B0022012190
:1048A000244803F08FFA244C214B0022206210335D
:1048B0000121224803F086FA6062C821206A03F0D1
:1048C000C3FA0221606A03F0BFFA194A0021FC3AD8
:1048D0001B4803F025FA164A6060D83A00211948AF
:1048E00003F01EFA124AA060B43A0021164803F001
:1048F00017FA0F4AE060903A0021144803F010FACA
:104900000B4A20616C3A0021114803F009FA084A69
:104910006061483A00210F4803F002FA044AA0619E
:10492000243A00210C4803F0FBF9E06110BD0000BF
:104930003899000865470008000000201559000854
:104940006558000889580008CD58000859580008D3
:104950007D580008BD580008B55800082DE9F04101
:1049600086B014216846FBF7D5FC3F480025016856
:1049700041F002010160016801F002010591016846
:1049800041F040010160016801F0400105910168BA
:1049900041F001010160016801F001010591016828
:1049A00041F008010160016801F00801059101680A
:1049B00041F004010160016801F004010591016802
:1049C00041F080010160016801F0800105910168FA
:1049D00041F020010160016801F0200105910168AA
:1049E00041F0100101600068204E00F010004FF40B
:1049F000E0540590002221463046FDF72CFC1C4F68
:104A0000012210213846FDF726FCDFF868800122DC
:104A100011464046FDF71FFC00940124CDE90145F5
:104A2000694630460395FDF733FB1020CDE90004BD
:104A3000022569463846CDE90245FDF729FB3020BD
:104A400000900D48CDE9010469460C48FDF720FBB4
:104A50000094694640460194CDE90245FDF718FBF4
:104A600006B0BDE8F081000030380240001C024072
:104A70000000024000040240000011100008024043
:104A80000D4810B50B4901600C49416000214FF4FD
:104A900080428160C0E9031241618161C1610162AC
:104AA000FDF71AFD002803D0BDE81040FCF73BBC21
:104AB00010BD0000005C004034020020801A060097
:104AC000104810B50E4901604FF482714160002119
:104AD00002228160C0E90312012242615202826116
:104AE0003822C0E90721416281620A21C162FEF7D2
:104AF000FDF9002803D0BDE81040FCF714BC10BD40
:104B0000003001408802002010B588B01C216846A2
:104B1000FBF700FC15481449002401609F21C0E9FF
:104B2000011440F2E731C0E903148461FEF7D4FBBD
:104B300008B1FCF7F8FB0D48FEF7D5FD08B1FCF70E
:104B4000F2FB6020CDE90004029400226946074888
:104B50000494FEF760FD08B1FCF7E5FB0348FEF79F
:104B6000FFFC08B010BD000000440140A00300207D
:104B70000C4810B50A4901604F21416000214FF6F1
:104B8000FF72C0E90212016180218161FEF7A4FB7E
:104B9000002803D0BDE81040FCF7C5BB10BD0000E5
:104BA00000200040E003002010B592B000240F94D4
:104BB0001C2108A81094FBF7ADFB20216846FBF7E9
:104BC000A9FB20481E4901609F21C0E9011444F659
:104BD0001F61C0E9031444618461FEF784FD08B1DC
:104BE000FCF7A1FB0F940FA916481094FEF72CFBBD
:104BF00008B1FCF798FB6020CDE908040A940B94F7
:104C00000C940D94002208A90E480E94FEF703FDA3
:104C100008B1FCF788FB00944FF40050CDE9044044
:104C2000029401940394694606480794FEF7E1FA5A
:104C300008B1FCF778FB0348FEF792FC12B010BDF8
:104C400000000140E002002010B58AB00024079463
:104C50001C2168460894FBF75DFB16481449016067
:104C60004F21C0E901144FF6FF71C0E903148461BC
:104C7000FEF739FD08B1FCF756FB079407A90D486C
:104C80000894FEF7E1FA08B1FCF74DFB6020CDE98E
:104C9000000402940822694606480494FEF7BBFC0F
:104CA00008B1FCF740FB0348FEF75AFC0AB010BD00
:104CB00000080040200300201CB500240E4800948A
:104CC0000C49019401604F21C0E901146321846102
:104CD000C160FEF701FB08B1FCF725FB00946946B3
:104CE00005480194FEF7B0FA002801D0FCF71BFB41
:104CF0001CBD000000100040600300200C4810B5EF
:104D00000A4901604FF4E1314160002181600C22C9
:104D1000C160C0E904128161C161FEF735FE00285F
:104D200003D0BDE81040FCF7FEBA10BD00100140F2
:104D3000200400200E4810B50C4901600D49416067
:104D40004FF4805181604900C160C91001610C219C
:104D5000416100218161C161FEF716FE002803D088
:104D6000BDE81040FCF7DFBA10BD0000004800406D
:104D700060040020A08601000C4810B50A490160BB
:104D80004FF4E1314160002181600C22C160C0E933
:104D900004128161C161FEF7F7FD002803D0BDE870
:104DA0001040FCF7C0BA10BD00140140A004002060
:104DB000FEE7B0F9003043800A8852BA12B202808E
:104DC0004988D31A49BA8180B0F90610B3F5805FDB
:104DD00001DD491E03E013F5805F01DA491CC18043
:104DE000B0F9061002EB413181607047C0ED171A2F
:104DF00080ED1B2A00F14002002182EC030A343AC4
:104E000080F8701080ED0A4AC0ED0E4AC2EC032A09
:104E100080F83C107047FEE7064910B5884208D17B
:104E2000012205490348FEF7F3FEBDE8104000F0FB
:104E300089B810BD20040020D801002010B50A2236
:104E400004490548FEF7E4FE024973200C31087559
:104E500010BD0000788800202004002090ED041A86
:104E600080ED051AD0ED030AC0ED040A90ED090AA1
:104E7000D0ED081A30EE610A80ED030A90F8301088
:104E800011B101292DD046E090ED061A71EE001AFD
:104E9000C0ED061A90ED071AF4EEC11AF1EE10FA01
:104EA00001DD80ED061AD0ED061AB1EE411AF4EEDE
:104EB000C11AF1EE10FA01D280ED061A90ED001A37
:104EC000D0ED011A90ED062A21EE001A30EE600AAC
:104ED000D0ED020A01EE821A00EE801A80ED0A1A65
:104EE00019E070EE601A90ED002AF0EE002A61EEF3
:104EF000821AB0EE402A00EEE22AD0ED010A32EE2C
:104F0000011A40EE811A40EE801A90ED0A0A31EE45
:104F1000800A80ED0A0AD0ED0A0A90ED0B0AF4EE41
:104F2000C00AF1EE10FA01DD80ED0A0AD0ED0A0A9E
:104F3000B1EE400AF4EEC00AF1EE10FA01D280EDB3
:104F40000A0A7047134930B413484A680B788354EF
:104F5000521C4A6004780023732C04D10A2A03DB14
:104F6000427A652A02D04B6030BC704730F8012F7E
:104F700054BA094A24325480448864BA948084889C
:104F800064BAD480C08840BA10814B6030BC0B201A
:104F9000FFF70ABCD80100207888002038B50168E6
:104FA00004460868C00632D508684868009018486A
:104FB00000681748001D006816484FF4001281422F
:104FC00002D914484C3804E01348814203D91148EF
:104FD0005038026008E0104B0F48603BB8389942E7
:104FE00001D9C26000E082602046FEF716FC606BCB
:104FF0000068406820B900F013F80020FFF7D4FBE8
:105000002046BDE8384012220449FEF7B5BD38BD40
:105010000048004058640240B8600240544E0020EE
:105020002B4910B40DC90DC12948028D428571E884
:105030000B23C1E90D23A0F114010A88C2F30A026F
:1050400002804A78D3088A7843EA4213C3F30A03FA
:105050004380CB78920942EA83030A7943EA8223A8
:10506000C3F30A03838053084A7943EAC213C3F3A4
:105070000A03C3800B8AC3F30A0303819309837273
:10508000C2F30112C272B1F9063003830C89448362
:105090004C8984830C7B84774C7BC477C9890185D8
:1050A0000021022A04D0032A05D0012A05D007E0F6
:1050B00080F86C1004E0012200E0022280F86C20ED
:1050C0005B1D0B2B00D3418310BCFFF737BB0000E7
:1050D000684E002005480068C16841F01001C160B9
:1050E000122203490148FEF747BD0000600400207A
:1050F000544E002010B52DED048B9FED7D0A7D48A8
:1051000080ED030A9FED7C0A80ED070A9FED7B0A84
:1051100080ED050A9FED7A0A742180ED040A794832
:10512000FBF7F8F874217848FBF7F4F87421774816
:10513000FBF7F0F874217648FBF7ECF8742175481A
:10514000FBF7E8F874217448FBF7E4F8742173481E
:10515000FBF7E0F874217248FBF7DCF87421714822
:10516000FBF7D8F89FED708AF0EE484AB0EE484A57
:10517000F0EE483AB0EE483AF0EE482ADFED6B8A9E
:10518000F0EE481AB0EE481AB0EE682AF0EE480A7F
:10519000B3EE040A5B48FFF729FEF0EE484AB0EE92
:1051A000484AF0EE483AB0EE483AF0EE482AB0EEFF
:1051B000682AF0EE481AB0EE481AF0EE480AB3EE4C
:1051C000040A5148FFF712FEF0EE484AB0EE484A92
:1051D000F0EE483AB0EE483AF0EE482AB0EE682ACF
:1051E000F0EE481AB0EE481AF0EE480AB3EE040AA0
:1051F0004648FFF7FBFDF0EE484AB0EE484AF0EEB5
:10520000483AB0EE483AF0EE482AB0EE682AF0EE9E
:10521000481AB0EE481AF0EE480AB3EE040A3C48C9
:10522000FFF7E4FDDFED424A9FED429AF0EE483A87
:10523000B0EE483AB0EE494ADFED3F0A9FED3F2A13
:10524000F0EE602ADFED3E9AB0EE481A9FED3D0A7F
:10525000F0EE691A2F48FFF7C9FDDFED3B4AB0EECB
:10526000494AF0EE483AB0EE483AF6EE002AB0EE7F
:10527000682AF0EE691AB0EE481AF0EE480A9FED7F
:10528000330A2548FFF7B2FDDFED318AF0EE484AD8
:10529000B0EE484AF0EE483AB0EE483AF0EE482A0E
:1052A000B0EE682AF0EE481AB0EE481AF0EE480A5E
:1052B000B3EE040A1A48FFF799FDF0EE484AB0EE43
:1052C000484AF0EE483AB0EE483AF0EE482AB0EEDE
:1052D000682AF0EE481AB0EE481AF0EE480ABDEC23
:1052E000048BB3EE040ABDE810400E48FFF77EBD04
:1052F0000080AC44C08800200088AA4500400845D2
:1053000000806D44384F0020AC4F0020205000201A
:10531000945000200456002064520020C053002006
:10532000D85200204C5300200000000000803B4673
:1053300000007A45000080489A99193F00401C46B9
:10534000000000450000A04200409C450000C8420B
:105350000000FA452DE9F047A84CDFF8A4820026AA
:105360002078607040B9E670B8F9000000EE100ACD
:10537000B8EEC00A84ED060ADFF888A2DFF888924A
:105380000127DAF8640058B1A04D95F86C0038B1E7
:105390000220FFF74BF918B90120FFF747F9F0B1E8
:1053A0009C4826709FED9A0A277180ED1A0A9A4848
:1053B00080ED1A0A994880ED1A0A994880ED1A0A78
:1053C000984888ED1A0A89ED1A0A80ED1A0A96485B
:1053D00080ED1A0A954880ED1A0ABDE8F08795F825
:1053E0006C209348012A02D0022A02D00BE02770D9
:1053F00009E002212170A96D012903D1C18809B1F9
:10540000677100E0667195F90A10012903D02671D1
:10541000022918D000E02771A67027784FF448635E
:1054200041F24C31012F10D0022AD6D12A8DD70655
:1054300077D540F68C27A76340F6C417E7633C276F
:10544000C4E9107378E0A770E7E7B5F90200A0F5AA
:10545000806000EE100AF8EEC00AB3EE000A60EEBB
:10546000800AFDEEE00AC4ED0E0AB5F90000A0F5D1
:10547000806000EE900A7820F8EEE00A20EE800AC4
:10548000BDEEC00A84ED0F0AC4E91003B5F90600A9
:10549000B0F5806F0ADDA0F5806000EE100AD4ED53
:1054A000030AB8EEC00A30EE800A0BE0A0F5806077
:1054B00000EE900A94ED030AF8EEE00A9FED5D1A03
:1054C00000EE810A84ED020AE078012801D068B17B
:1054D0001CE0B5F9040094ED060AA0F5806000EE2A
:1054E000900AF8EEE00A9FED541A0BE0B5F90400BB
:1054F00094ED070AA0F5806000EE900AB7EE081A56
:10550000F8EEE00A00EEC10A84ED060A6162B5F920
:105510000800A0F5806000EB400101EBC0006AE0EC
:10552000FFE74FF4E163A36340F2D663E36328230C
:1055300023644FF4FA636364D30706D1930703D55A
:10554000A36B5B42A36300E0A663530706D4120774
:1055500003D5E26B5242E26300E0E6636279012A1E
:105560000CD0B5F91A00D4ED020A00EE100A00289A
:10557000B8EEC00A23DDB5EE001A22E0B9F900202A
:1055800000EE102AB0F90420F8EEC00A00EE102A4E
:10559000B8EEC01A9FED290A41EE000AC4ED020AD6
:1055A000B0F90200DAED0C0A01EE100AF8EEE00A9A
:1055B000B8EEC11A41EE400AC4ED060A13E09FEDB1
:1055C000201A40EE410A9FED1F1AC4ED020AB5F9F8
:1055D000180094ED060A00EE900AF8EEE00A00EEDC
:1055E000C10A84ED060A6162A87F012801D0A66283
:1055F000F3E641F29410A062EFE60000C0880020BC
:1056000064520020AC87002004560020684E002021
:1056100000000000384F0020AC4F00202050002038
:1056200094500020C0530020D85200204C5300203A
:105630009C880020CDCC4C3FCDCC4C3D7D05693EB7
:105640000AD7A33E295C8F3E0148FDF7D1BB00007D
:105650008802002010B5806B0021C187C186FDF74C
:10566000C5FB10BD38B504461248134B0068B0FBAB
:10567000F3F04FF47A73584300906068B0F5827F7E
:105680000DD10B46009200228021204600F016F832
:1056900070B1606D40F020006065032038BD009857
:1056A00030B1401E009020688068C0430006F6D5E7
:1056B000002038BD4000002000366E012DE9F04189
:1056C0001D4617460E460446DDF8188008E0681CA3
:1056D00006D0FCF7C5FDA0EB0800A8420BD255B1DF
:1056E0002068806836EA000030D00020B842EED151
:1056F0000020BDE8F0812068416821F0E0014160B0
:105700006068B0F5827F0BD1A068B0F5004F02D081
:10571000B0F5806F04D12068016821F0400101607C
:10572000A06AB0F5005F09D12068016821F400513A
:1057300001602068016841F400510160012084F893
:105740005100002084F850000320D2E70120CDE76B
:10575000144810B5B0F9041000EE101AB8EEC00AE3
:1057600080ED180A1048B0F9041000EE101AB8EED7
:10577000C00A80ED180A0D48B0F9041000EE101AA6
:10578000B8EEC00A80ED180A06484030FFF766FB05
:1057900005484030FFF762FB0448BDE81040403048
:1057A000FFF75CBBC0530020D85200204C530020B0
:1057B000F8B523480027234C0179234D234E0129B6
:1057C00031D000292ED190ED0A0AB8EEC00A84ED3E
:1057D000190A406A414200EE101AB8EEC00A85ED7F
:1057E000190A00EE100AB8EEC00A86ED190AFFF792
:1057F000AFFF009794ED1A0ABDEEC00A10EE100A32
:1058000096ED1A0A03B2BDEEC00A10EE100A95ED2D
:105810001A0A02B2BDEEC00A10EE100A01B20C481C
:10582000FBF752FBF8BD9FED0B0A002384ED1A0A2B
:1058300085ED1A0A86ED1A0A1A4619460097EEE710
:10584000C0880020C0530020D85200204C530020B4
:105850000C02002000000000FBF7B0FB012002F06A
:105860000DFAF9E7044C606E012801D1FBF7F4F959
:105870001E2002F003FAF6E7AC870020FBF7A8FD34
:10588000012002F0FBF9F9E7FBF7FEF80028FBD155
:10589000074C074801F02CFF94ED060AFEF742FE84
:1058A0000120FEF781FF012002F0E8F9F1E7000096
:1058B000AC870020012002F0E1F9FBE7FFF71AFCBA
:1058C000FFF748FD012002F0D9F9F9E7FFF770FF73
:1058D000012002F0D3F9F9E730B50C4D00210C4B53
:1058E0002868012253F82140142C06DA641C43F87E
:1058F000214002FA01F4A04302E002FA01F420433D
:10590000491C0C29EEDB286030BD00002C01002072
:1059100048880020FFF7E0BF10B5502080F31188C1
:10592000BFF34F8FBFF36F8F03F0B4FD18B104497D
:105930004FF080500860002080F3118810BD0000F7
:1059400004ED00E030B593B030216846FAF7E2FC90
:1059500014210CA8FAF7DEFC1D480025016841F06F
:1059600080510160006800F0805011901948016872
:1059700041F4804101600068022400F480401190ED
:1059800001200090000401908001CDE9064006202E
:105990000890A020CDE9090404200B906846FDF78B
:1059A00077F808B172B6FEE70CA90F2081E8310044
:1059B0004FF4A0500F904FF48050109005210CA888
:1059C000FCF75AFF002801D072B6FEE713B030BDD5
:1059D00040380240007000400548016841F4700101
:1059E000016003494FF00060803908607047000093
:1059F00088ED00E00148FDF7FFBC000060030020D7
:105A00000148FDF7F9BC000040050020F0B5026830
:105A1000254C264D264E274F274B4FF0804CA04259
:105A200009D0604507D0A84205D0B04203D0B842A3
:105A300001D0984204D122F0700E4A6842EA0E0268
:105A4000A0421BD0604519D0A84217D0B04215D053
:105A5000B84213D0984211D0184DA8420ED0184D1C
:105A6000A8420BD0174DA84208D0174DA84205D028
:105A7000164DA84202D0164DA84203D122F440751B
:105A8000CA682A434D6922F080022A4302608A686C
:105A9000C2620A688262A04201D0984201D10969BB
:105AA000016301214161F0BD00000140000400409C
:105AB00000080040000C004000040140004001408C
:105AC000004401400048014000180040001C004014
:105AD0000020004010B501F01F030121046A994025
